:020000040800F2
:10000000E0070420B10200088339000865390008C0
:100010007F39000809100008F74A000800000000B6
:10002000000000000000000000000000D1010008F6
:1000300015110008000000002D020008B546000858
:10004000CB020008CB020008CB0200087D3F00086D
:10005000CB020008CB020008CB020008CB0200084C
:10006000CB020008CB020008CB0200088510000874
:100070008D100008CB020008CB020008CB0200085C
:10008000CB020008CB020008CB020008CB0200081C
:10009000CB020008CB020008CB02000817110008B1
:1000A000CB020008CB020008CB020008CB020008FC
:1000B000CB020008C1480008C9480008CB0200086C
:1000C000CB020008CB020008CB020008CF42000898
:1000D000CB020008E74A0008EF4A0008CB020008FC
:1000E000CB020008253E0008CB020008CB02000826
:1000F000ED480008CB020008CB0200080000000019
:10010000CB020008CB020008D1480008CB0200084F
:10011000CB020008CB020008CB020008D948000837
:10012000CB020008CB020008CB020008CB0200087B
:10013000CB020008CB020008CB020008CB0200086B
:10014000CB020008CB020008CB020008CB0200085B
:10015000CB020008CB0200087D390008CB02000862
:10016000CB020008CB020008CB020008CB0200083B
:10017000CB020008CB020008CB0200080000000000
:10018000CB020008CB020008CB020008CB0200081B
:10019000CB020008CB0200080000000000000000B5
:1001A0000000000000000000CB020008CB020008A5
:1001B000CB020008CB020008CB020008DFF80CD00D
:1001C00000F0B6F800480047F14E0008E0070420B0
:1001D0002C4B1968086800F05AB880F30988BFF3FF
:1001E0006F8F4FF0000080F311887047000000000F
:1001F00008480068006880F308884FF0000080F32A
:10020000148862B661B6BFF34F8FBFF36F8F00DF04
:1002100000BF00BF08ED00E0DFF80C00016841F40A
:1002200070010160704700BF88ED00E0EFF30980C6
:10023000BFF36F8F134B1A681EF0100F08BF20ED2D
:10024000108A20E9F04F106009B44FF0500080F39D
:100250001188BFF34F8FBFF36F8F05F02BFE4FF068
:10026000000080F3118809BC1968086800F014B810
:100270001EF0100F08BF00F014B880F30988BFF318
:100280006F8F704718F00020EFF30580704730C87B
:10029000B0E8C04FFFF7A1BF30C8B0E8C04FFFF7CC
:1002A000E7BFB0EC088AB0EC08CAFFF7E6BF000071
:1002B0000648804706480047FEE7FEE7FEE7FEE700
:1002C000FEE7FEE7FEE7FEE7FEE7FEE75947000828
:1002D000BD01000840EA01039B0703D009E008C9FB
:1002E000121F08C0042AFAD203E011F8013B00F8FB
:1002F000013B521EF9D27047D2B201E000F8012B47
:10030000491EFBD270470022F6E710B513460A4695
:1003100004461946FFF7F0FF204610BD034611F8CA
:10032000012B00F8012B002AF9D118467047000074
:10033000064C074D06E0E06840F0010394E8070032
:1003400098471034AC42F6D3FFF73CFF24780008FE
:100350004478000830B58C1810F8012B12F00F0308
:1003600001D110F8013B120906D110F8012B03E06E
:1003700010F8015B01F8015B5B1EF9D101E001F8A7
:10038000013B521EFBD1A142E6D3002030BD00004C
:1003900010B505A1002003F081FE00224FF480512A
:1003A000074801F02EFB10BD4150505F506F77653C
:1003B00072204156332E3356204F4E0D0A00000056
:1003C0000010004800B587B000BF1848C06C40F06E
:1003D00010001649C8640846C06C00F01000019077
:1003E00000BF00BF00BF0846C06C40F00200C864F8
:1003F0000846C06C00F00200019000BF00BF012061
:100400000390000302900320059002A9084801F020
:10041000F7F94FF40050029002A9064801F0F0F9F4
:10042000FFF7B6FF00F008F807B000BD001002406B
:10043000001000480004004810B505A1002003F09A
:100440002DFE00224FF40051074801F0DAFA10BDEA
:100450004150505F506F7765725F4C4D37385F4F3A
:1004600046460D0A000000000004004810B505A132
:10047000002003F013FE01225103074801F0C1FAE6
:1004800010BD00004150505F506F7765725F4E6540
:10049000745F4F4E0D0A00000004004810B5064876
:1004A0000078012806D10121084600F013FE002043
:1004B0000149087010BD00003EEC002013B50C4649
:1004C00022466946002000F01DFC1CBD10B500F05E
:1004D0007FF824482449098830F8111023480288FD
:1004E0000088401C214B1880214820F81210184623
:1004F0000088B0F5806F06D100201E4908800120D9
:100500001D4908700EE019480088B0F5006F09DB3E
:100510000020164908804FF48060164908800120A9
:100520001549087010480088401C0F490880088849
:10053000C11700EB5171C910A0EBC1010A4A11802B
:100540000A4909881288881AC11700EB5171C9102D
:10055000A0EBC10121B100200349088003490880B4
:1005600010BD0000401D01203AEC002038EC0020B6
:10057000501D01203CEC00203EEC002010B5002274
:100580000121024801F03DFA10BD000000040048BE
:1005900070B5002500240B480B490988455C43F6DB
:1005A000412040EAC5144FF6FF7000EA8404FFF7CB
:1005B000E5FF0648044A128800EB42012046FFF797
:1005C0007DFF70BDB27700083AEC0020401D01208D
:1005D00010B501221146024801F013FA10BD0000C7
:1005E0000004004810B5014600BF254A92F8292BA7
:1005F00040F22D1312FB03F2224B03EB4200204A80
:1006000092F8292B40F22D1312FB03F21D4B03EB42
:100610004202B2F858220A80194A92F8292B521C39
:10062000D3B2174A82F8293B92F8293B92F82B2B38
:1006300093FBF2F402FB1432D3B2114A82F8293B45
:1006400092F8293B92F8282B93420ADC0C4A92F844
:10065000283B92F8292B9A1AD3B2094A82F82A3BEE
:100660000DE0074A92F8283B92F82B2B1344044ADA
:1006700092F8292B9A1AD3B2014A82F82A3B10BD6C
:1006800018E000201800002010B50A4890F82A0B46
:1006900078B9084890F8281B90F8290B814208D0B7
:1006A00005A1002003F0FAFC024890F8281B80F80E
:1006B000291B10BD18E0002057485920696E20758D
:1006C0006E6571756C206F7574202C616E6420747A
:1006D000686520636F756E7420697320300D0A00A1
:1006E00038B50F4890F82A0B00280CDD00240020B4
:1006F00000906846FFF776FF0446BDF800102046DC
:1007000000F026F80BE0FFF7BFFF01200549487015
:10071000034890F82A2B04A1002003F0BFFC38BD49
:1007200018E0002044EB002045535033325F5365FE
:100730006E645F49444C4520262054785175657598
:10074000652E636F756E74203A25640D0A000000F3
:1007500070B504460D462A462146002000F07EFB77
:1007600070BD30B503460C46002003E0255C1D54E7
:10077000451CA8B29042F9DB104630BD2DE9F04F80
:1007800087B004460E4693460020039004900590DF
:10079000069002908146019082460025A4F10064F3
:1007A000B246A7E0C4F30B0001900198C0F5805950
:1007B0005348008880B24FF6FF71884202D14FF44F
:1007C000001003E04E48008800048009B4EB500F8D
:1007D0000DD201200490200B05904FF00062059887
:1007E00002EB0031D2134748FFF7BBFF2DE0022098
:1007F00004904348008880B24FF6FF71884202D1CE
:100800004FF4001003E03E48008800048009A4EB88
:100810005000000B05904FF00062059802EB00328B
:100820003748008880B24FF6FF73984202D14FF4E8
:10083000001003E0324800880004800902EB5001F8
:100840004FF480522F48FFF78CFF012006900020C4
:100850000390019881B24B4652462A4804F033FB7C
:10086000CA4400F0A5FF02A903A800F0AFFE009063
:10087000002534E0049801280FD122482844D0E90B
:1008800000734FF00062059802EB003041193A46C0
:10089000002000F02DFF00901EE04FF00062059850
:1008A00002EB00321648008880B24FF6FF73984280
:1008B00002D14FF4001003E01148008800048009C1
:1008C00002EB500041190F482844D0E900733A4622
:1008D000002000F00DFF009005F1080085B2B5F58D
:1008E000805FC7D300F0FAFE4C44AAEB06005845DF
:1008F00000DB00E056E700BF009807B000F004B846
:10090000E075FF1F2808012030BCBDE8C08F10B57E
:1009100000F028FBFFF756FD00F084F910BD000041
:1009200010B5202000F05EFF02480068401C01491D
:10093000086010BDD8EF002010B500220121024848
:1009400001F05FF810BD00000010004810B5194814
:1009500002F0C7FD18480068401C174908600846A7
:1009600000686A2824D915480068154908600846B7
:1009700090ED000AF8EE400A9FED121A9FED120A60
:1009800010EE810A1148B0F9820200EE900AF8EEEA
:10099000E00A9FED0F1A00EE810A0E4880ED890AE9
:1009A000002005490860FFF7C7FF024802F07CFD00
:1009B00010BD0000502D0120D4EF0020D8EF002002
:1009C000DCEF00200000803D0000484290F0002055
:1009D000CDCCCC3D30FA002070B505460E4614460D
:1009E00015B1012D7ED14DE0642C44DC002C42DD9C
:1009F0004B4991F8C511972211FB02F1484A88181A
:100A00009621FFF780FC464991F8C511972211FB0A
:100A100002F1434A881822463146FFF75BFC404901
:100A200091F8C511972211FB02F13D4A114481F85A
:100A30009640104690F8C501401C114681F8C5014A
:100A4000084690F8C701401C81F8C701084690F895
:100A5000C501032190FBF1F201FB1200304981F83E
:100A6000C5010121084602F08DFF22462DA100207C
:100A700003F014FB05E023462A4631A1002003F0D1
:100A80000DFB4BE0642C41DC002C3FDD334991F839
:100A9000C511972211FB02F1304A88189621FFF701
:100AA00032FC2E4991F8C511972211FB02F12B4A15
:100AB000881822463146FFF70DFC284991F8C511E8
:100AC000972211FB02F1254A114481F89640104605
:100AD00090F8C501401C114681F8C501084690F800
:100AE000C70100E019E0401C81F8C701084690F8F2
:100AF000C501032190FBF1F201FB1200174981F8B7
:100B0000C5010121084600F09FFA05E023462A4668
:100B10000BA1002003F0C2FA00E000BF00BF70BDCF
:100B20003FEC00204253505F51756575655F456E1F
:100B30007175657565204C656E203A25640D0A0057
:100B40005175657565202564206973206F7665721F
:100B5000206C656E2025640D0A00000008EE002060
:100B60002DE9F04F04460D461646032D0CDBAC462E
:100B7000642094FBF0F800FB1840C2B2642094FBA0
:100B8000F0F0C3B2374610E005F10C0000F0FF0CA6
:100B9000601E4FF0640890FBF8F908FB1900C2B220
:100BA000601E90FBF8F0C3B237460CF101094FF01C
:100BB0001A0A09FB0AF94FF00A0A99FBFAF94FEAF7
:100BC000E27A02EB9A7A02EBAA0A4FEAE37B03EBA2
:100BD0009B7B0AEBAB0A4FF0020B0BFB13AAD14431
:100BE000B944A9F101090FFA89F109B9072111E006
:100BF00000290ADA48424FF0070890FBF8F908FB91
:100C00001900C0F1070001B204E0072091FBF0F8E1
:100C100000FB181101B90721C8B200F000B830BCC0
:100C2000BDE8C08F1CB5114811490860012110486A
:100C300002F0D4F804464AF2A850844213D003F0DC
:100C400001F90020022103461322CDE900100721FB
:100C500040F2E37000F00EF84AF2A8520121044875
:100C600002F0C4F801E003F0EDF81CBD00280040DC
:100C7000B81C01202DE9F04387B004460D46164606
:100C80001F46DDE90E89164816490860A4F5FA608A
:100C9000C0B28DF81B008DF819508DF81A603246DD
:100CA00029462046FFF75CFF8DF81800002206A9B0
:100CB0000C4802F01FF98DF804708DF805808DF84E
:100CC000069000208DF8070004900590002201A9ED
:100CD000044802F075F9012007B0BDE8F083000078
:100CE00000280040B81C012010B5054802F006FAA3
:100CF000034802F0FEF9012801D1FFF7E7FB10BD20
:100D0000DC1C012070B506460C46154601232A4618
:100D10002146024802F0A2FA70BD0000DC1C01204E
:100D200010B500F085FE10BD10B5034802F0D9FBE8
:100D3000FFF7B4FB10BD00009CEB002006480068E4
:100D400000F0010030B1044800684FF6FE71084021
:100D50000149086070470000100C004010B50748BA
:100D6000006800F0010040B1044800684FF6FE71D1
:100D7000084002490860FFF70BFC10BD1034014029
:100D800010B5024800F02EFB10BD00000C1B012026
:100D900010B5024800F026FB10BD0000F81B012032
:100DA00010B510480068C069C0F3001088B10E4843
:100DB00002880E490020FFF70FFE4FF496710B4892
:100DC000FFF7A1FA002008490880102005490968AA
:100DD0000862044802F06AFC0820024909680862B7
:100DE00010BD0000801A01204AEB002028180120C5
:100DF00010B512480068C069C0F30010A8B11048CF
:100E0000028810490120FFF7E7FD4FF496710D4865
:100E1000FFF779FA00200A4908801020074909687D
:100E2000086209A1002003F039F9044802F03EFCF1
:100E3000082002490968086210BD00006C1B0120EF
:100E40004CEB002054190120454E54455220556169
:100E50007274322049444C45200D0A0070B5044696
:100E60000D46164614B1012C0CD105E03246294638
:100E7000064802F00DFD06E032462946044802F01D
:100E800007FD00E000BF00BF70BD0000801A012018
:100E90006C1B012070B520A1002003F0FFF801F0C9
:100EA000A5FB044622461FA1002003F0F7F801F03D
:100EB00073FB0446224620A1002003F0EFF801F066
:100EC00083FB044601F06EFB054623462A461EA11D
:100ED000002003F0E3F8FFF723FF03F005FC01F027
:100EE00085FB044622460FA1002003F0D7F801F04D
:100EF00053FB0446224610A1002003F0CFF801F076
:100F000063FB044601F04EFB054623462A460EA12C
:100F1000002003F0C3F870BD426F617264496E69CE
:100F2000740D0A00537973436C6F636B467265717D
:100F30003A25640D0A00000048434C4B4672657127
:100F40003A25640D0A00000050434C4B314672654F
:100F5000713A256420434C4B32467265713A2564E0
:100F60000D0A000038B5002400BF1C48C06C40F0DA
:100F700004001A49C8640846C06C00F004000090E0
:100F800000BF00BF00BF0DE0C4EBC402144B03EB75
:100F90008202111DC4EBC40253F8220000F030FCA1
:100FA000601CC4B2012CEFDB002413E0C4EBC403CB
:100FB0000B4D05EB83031A7EC4EBC40305EB8303DF
:100FC0009B8899B2C4EBC40355F8230000F019FDC7
:100FD000601CC4B2012CE9DB38BD000000100240E7
:100FE0001CEC002010B50446C4EBC402054B03EB17
:100FF0008202928891B2C4EBC40253F8220000F03E
:10100000F9FC10BD1CEC002000BFFEE730B5024625
:101010000B464FF6FF70002112E0555C684000243B
:101020000AE000F0010525B14AF2010585EA6000F9
:1010300000E04010651CACB2082CF2DB4D1CA9B2DC
:101040009942EADB30BD000038B504460D46012D5B
:1010500009D0022D11D10023012221460848006841
:1010600005F032FB0AE000200346012221460090F1
:101070000348006805F0BCFB00E000BF00BF38BDBE
:101080001400002010B5FFF77BFE10BD10B5FFF770
:101090007FFE10BD30B5D0E913546C60446D14B1BF
:1010A000D0E916546C6090F8444004F01C0501240B
:1010B000AC40056C6C60046863608468102C04D1DB
:1010C0000468A2600468E16003E00468A160046849
:1010D000E26030BD7CB504460D4600200190012D34
:1010E00009D0022D11D100230122214608480068B1
:1010F00005F0EAFA0AE001A8002301222146009047
:101100000348006805F074FB00E000BF00BF7CBD31
:101110000C000020704710B5FFF702FC10BD000066
:1011200004E003A20021084602F0B8FFF9E700003E
:101130004572726F725F48616E646C65720D0A0071
:101140001849087F012801D0032811D100BF164992
:10115000096841F40061144A11601146096821F4DC
:101160000061116000BF1146096841F4007111600F
:10117000022801D0032811D100BF0B49096841F4AE
:101180008051094A11601146096821F480511160AB
:1011900000BF1146096841F4806111600021014AD5
:1011A00011777047F8EF0020002002401249096AC9
:1011B00001F4800191B100F0010129B10E494969A2
:1011C00041F004010C4A516100F0020169B10A4981
:1011D000496941F40041084A516106E006494969FC
:1011E00048F204021143044A51610349496941F438
:1011F0008031014A5161704700200240164A126A4C
:1012000002F4800232B9144A526922F40062124B8D
:101210005A610FE001F0010232B10F4A526922F423
:1012200000620D4B5A6105E00B4A526942F40062BC
:10123000094B5A61084A526960F3CA02064B5A6167
:101240001A46526942F002025A611A46526942F441
:1012500080325A61704700000020024010B50849F2
:10126000496941F00101064C6161026000BF00BFA5
:1012700000BFBFF36F8F00BF00BF00BF436010BD52
:1012800000200240F0B50246802314460D460C4E65
:10129000766946F480260A4F7E6100BFEFF3108620
:1012A000304672B600BF2E682660241D2D1D5E1EBE
:1012B000F3B2002BF7D100BF80F3108800BFF0BD60
:1012C0000020024070B5054600F0A0FB064608E08D
:1012D000681C30B100F09AFB801BA84201D30320A8
:1012E00070BD1C48006900F48030B0F5803FEFD03D
:1012F00018480069184900EA01041648806900F09E
:1013000000400443CCB1154840682043134948606D
:1013100000BF04F0404030B10E48806904F0404105
:1013200008430C49886124F0404018B124F0404043
:101330000849086100BF0120D2E70648006900F0B3
:10134000010020B100BF01200249086100BF002058
:10135000C6E7000000200240FAC30200F8EF0020B8
:1013600070B50446002594F82500022803D0042017
:10137000E063012534E02068006820F00E00216859
:1013800008602068006820F0010021680860A06CF7
:10139000006820F48070A16C086094F8440000F0AC
:1013A0001C0101208840216C4860D4E9131048607A
:1013B000606D40B1606D006820F48070616D086000
:1013C000D4E916104860012084F8250000BF0020F1
:1013D00084F8240000BFA06B10B12046A16B8847A1
:1013E000284670BD70B50446206C05682068066804
:1013F00094F8440000F01C01042088402840E0B12B
:1014000006F00400C8B12068006800F0200028B988
:101410002068006820F004002168086094F8440007
:1014200000F01C0104208840216C4860206B0028DB
:1014300056D02046216B884752E094F8440000F0D3
:101440001C0102208840284018B306F0020000B3B7
:101450002068006800F0200040B92068006820F093
:101460000A0021680860012084F8250094F84400EF
:1014700000F01C0102208840216C486000BF002061
:1014800084F8240000BFE06A50B32046E16A884730
:1014900026E094F8440000F01C0108208840284011
:1014A000F0B106F00800D8B12068006820F00E0006
:1014B0002168086094F8440000F01C010120884075
:1014C000216C48600120E06384F8250000BF002003
:1014D00084F8240000BF606B10B12046616B884720
:1014E00070BD2DE9F04104460D4616461F464FF0EB
:1014F000000800BF94F82400012802D10220BDE8B2
:10150000F081012084F8240000BF94F82500012810
:101510003FD1022084F825000020E06320680068A5
:1015200020F00100216808603B46324629462046EB
:10153000FFF7B0FD206B30B12068006840F00E006E
:10154000216808600BE02068006820F00400216832
:1015500008602068006840F00A0021680860A06CFC
:10156000006800F4803028B1A06C006840F48070FE
:10157000A16C0860606D28B1606D006840F48070F7
:10158000616D08602068006840F001002168086013
:1015900006E000BF002084F8240000BF4FF00208DE
:1015A0004046ACE770B5044600F030FA06462546E2
:1015B000681C10B104480068054400BF00F026FA1A
:1015C000801BA842FAD370BDF4EF00202DE9F04152
:1015D00004460F4600BF3F480078012802D1022090
:1015E000BDE8F08101203B49087000BF4CF250304B
:1015F000FFF768FE0646002E64D13649486036483B
:10160000006800F40070B8B13348006820F400703E
:10161000314908600846006800F4806040B108461F
:10162000006820F48060086003202A49087715E0EC
:1016300001202849087711E02748006800F48060FD
:1016400048B12548006820F48060234908600220E2
:101650002049087702E000201E4908772068012809
:101660000FD16068FFF7A2FD4CF25030FFF72AFE61
:1016700006461948406948F2040188431649486102
:101680001EE04FF0FF303860A56813E0284661681F
:10169000FFF7B4FD4CF25030FFF714FE06460E483B
:1016A000406940F2FA7188430B4948610EB13D60D0
:1016B00005E06D1CD4E902010844A842E6D800BF49
:1016C000FFF73EFD00BF00200249087000BF304612
:1016D00086E70000F8EF0020002002400348406940
:1016E00040F000400149486100207047002002405E
:1016F0002DE9F0470446884615461E464FF000097E
:1017000000BF29480078012802D10220BDE8F087F7
:1017100001202549087000BF4CF25030FFF7D2FD80
:101720000746002F38D1204948602048006800F45F
:10173000806048B11D48006820F480601B49086043
:1017400002201949087702E00020174908773CB9C0
:101750002A4633464046FFF781FD4FF001090BE072
:10176000012C01D0022C07D129464046FFF78AFD03
:10177000022C01D14FF480294CF25030FFF7A2FD2A
:101780000746B9F1000F05D00848406920EA090072
:1017900006494861FFF7D4FC00BF002002490870E9
:1017A00000BF3846B2E70000F8EF002000200240FA
:1017B00000200849496901F0004151B10649054A34
:1017C0009160064991601146496901F0004101B1FB
:1017D000012070470020024023016745AB89EFCD0F
:1017E0007047000010B5044604480068204020B14E
:1017F000024804602046FFF7F3FF10BD14040140C7
:1018000078B502460023DAE001269E400D6805EA1D
:101810000604002C72D04D68022D02D04D68122DA6
:1018200013D1DE0802F1200555F826005D07EE0E03
:101830000F25B540A8435E07F60E0D69B540284355
:10184000DE0802F1200545F8260010685E00032539
:10185000B540A8430D7905F003055E00B540284367
:1018600010604D68012D08D04D68022D05D04D68DF
:10187000112D02D04D68122D13D190685E00032502
:10188000B540A8435E00CD68B540284390605068DD
:1018900001259D40A8430D79C5F300159D402843BF
:1018A0005060D0685E000325B540A8435E008D6897
:1018B000B5402843D0604D6805F08055B5F1805F94
:1018C0007CD100BF414D2D6E45F001053F4E356680
:1018D00035462D6E05F00105009500BF00BF4FEAAB
:1018E000B6359E0855F826009D072E0F0F25B540EA
:1018F000A843B2F1904F02D1002524E05EE0344DC0
:10190000AA4201D101251EE0324DAA4201D1022591
:1019100019E0314DAA4201D1032514E02F4DAA420E
:1019200001D104250FE02E4DAA4201D105250AE080
:101930002C4DAA4201D1062505E02B4DAA4201D12A
:10194000072500E008259E07360FB5402843274DA0
:101950009E0845F82600264D2868A0434D6805F4EA
:101960008035B5F5803F00D12043214D28602D1DE5
:101970002868A0434D6805F40035B5F5003F00D157
:1019800020431B4D2D1D28602D1D2868A0434D6848
:1019900005F48015B5F5801F00D12043144D08359E
:1019A00028602D1D2868A0434D6805F40015B5F585
:1019B000001F00D120430E4D0C3528605B1C0D68C4
:1019C000DD40002D7FF420AF78BD00000010024004
:1019D0000004004800080048000C004800100048BF
:1019E0000014004800180048001C0048080001408E
:1019F0000004014042690A400AB1816200E081614D
:101A000070470AB1816100E0816270470148006857
:101A100070470000ECEF00200348006803490968A4
:101A20000844014908607047ECEF0020F4EF002003
:101A300010B50024032000F0C5F8002000F008F8DD
:101A400008B1012401E000F047F8204610BD000075
:101A500070B588B0044600250026002221463720B4
:101A600000F06EF8372000F05BF800BF1648806D7C
:101A700040F02000144988650846806D00F0200081
:101A8000019000BF00BF02A903A800F063FD00F0B1
:101A900089FD05460D48B5FBF0F0461E0C480D4982
:101AA000086040F2E7310B48C160466000210161E7
:101AB000816001F053FC20B9064801F0D9FC08B060
:101AC00070BD0120FBE700000010024040420F0003
:101AD00000140040E807012008B500BF0F48006E61
:101AE00040F001000D4908660846006E00F0010054
:101AF000009000BF00BF00BF0846806D40F08050DE
:101B000088650846806D00F08050009000BF00BFDF
:101B100000220F21901E00F013F808BD00100240B3
:101B200001460846002809DB00F01F0301229A4005
:101B300043099B0003F1E023C3F8002100BF704775
:101B40002DE9F05F80460D461646002703F090F918
:101B5000074639462A46334601F00700C0F1070A16
:101B6000BAF1040F02D94FF0040A01E0C0F1070AEC
:101B7000D14600F1040ABAF1070F02D24FF0000A71
:101B800001E0A0F1030AD4464FF0010A0AFA09FA6B
:101B9000AAF1010A0AEA020A0AFA0CFA4FF0010B4A
:101BA0000BFA0CFBABF1010B0BEA030B4AEA0B043B
:101BB0002146404603F064F900F000B830BCBDE8AF
:101BC000C09F000000BF00F00702064B19684FF6E7
:101BD000FF031940044B0B4343EA0221014B1960F8
:101BE00000BF70470CED00E00000FA0502468ABB1A
:101BF0004148006800F4C060B0F5806F2BD13E48CA
:101C00008030006820F480703B4BC3F88000184699
:101C1000006820F4C06040F4007018603748006825
:101C200032235843364BB0FBF3F0411C00E0491E11
:101C30003148406900F48060B0F5806F01D100291F
:101C4000F5D12D48406900F48060B0F5806F51D126
:101C50000320704708E028488030006820F4807036
:101C6000254BC3F8800045E0B2F5007F3AD1224809
:101C7000006800F4C060B0F5806F2AD11E48803043
:101C8000006840F480701C4BC3F880001846006860
:101C900020F4C06040F400701860184800683223D7
:101CA0005843174BB0FBF3F0411C00E0491E1248AB
:101CB000406900F48060B0F5806F01D10029F5D152
:101CC0000D48406900F48060B0F5806F12D10320A8
:101CD000BFE709488030006840F48070064BC3F8C5
:101CE000800007E00448006820F4C06040F4806091
:101CF000014B18600020ACE700700040E8EF0020C6
:101D000040420F000B48006800F4C060B0F5806FDF
:101D100002D14FF48060704706488030006800F4BC
:101D20008070B0F5807F02D14FF40070F3E700209F
:101D3000F1E70000007000400348006840F4807044
:101D40000149086070470000007000402DE9F84329
:101D500004460025A846208800F40060B0F5006F16
:101D600032D1E06E402809D003DC70B120281BD1AD
:101D700011E0602816D0802816D114E0FE48C06813
:101D800040F48030FC49C86010E00021201D01F0C3
:101D90002DFE05460AE0002104F1200001F0EAFED4
:101DA000054603E000BF01E0012500BF00BF55B9B3
:101DB000F1489C30006820F0E000E16E0843EE49F5
:101DC000C1F89C0000E0A846208800F48050B0F5DF
:101DD000805F36D1206FB0F5007F0CD004DC88B175
:101DE000B0F5807F1DD113E0B0F5407F17D0B0F57E
:101DF000806F16D114E0E048C06840F48030DE49BE
:101E0000C86010E00021201D01F0F0FD05460AE049
:101E1000002104F1200001F0ADFE054603E000BF03
:101E200001E0012500BF00BF55B9D3489C300068D0
:101E300020F4E060216F0843CF49C1F89C0000E026
:101E4000A846206800F40030B0F5003F77D14FF08D
:101E50000009C948806D012121EA107078B100BFE6
:101E6000C548806D40F08050C34988650846806D44
:101E700000F08050009000BF00BF4FF00109BF4844
:101E8000006840F48070BD490860FFF7BFFD074659
:101E900006E0FFF7BBFDC01B022801D9032505E0C2
:101EA000B648006800F480700028F2D000BF85BBFF
:101EB000B1489030006800F44076D6B1D4F898006C
:101EC000B04216D0AC489030006820F44076AA4862
:101ED000D0F8900040F48030A749C1F8900008463F
:101EE000D0F8900020F48030C1F890000846C0F887
:101EF000906006F00100A8B1FFF788FD074609E0F1
:101F0000FFF784FDC01B41F28831884202D90325C6
:101F100007E017E098489030006800F002000028C1
:101F2000EED000BF65B994489030006820F440704E
:101F3000D4F8981008439049C1F8900003E00CE0F1
:101F4000A84600E0A846B9F1010F05D18A48806D86
:101F500020F080508849886500BF207800F001009B
:101F600048B185488830006820F00300E16B0843E1
:101F70008149C1F88800207800F00200022809D1C8
:101F80007D488830006820F00C00216C08437A49B5
:101F9000C1F88800207800F00400042809D17648B0
:101FA0008830006820F03000616C08437249C1F845
:101FB0008800207800F00800082809D16E48883091
:101FC000006820F0C000A16C08436B49C1F888008C
:101FD000207800F01000102809D167488830006888
:101FE00020F44070E16C08436349C1F88800207810
:101FF00000F02000202809D15F488830006820F4D4
:102000004060216D08435C49C1F88800208800F4D5
:102010000070B0F5007F09D157488830006820F47F
:102020004020616E08435449C1F88800208800F4BC
:102030008060B0F5806F09D14F488830006820F487
:102040004010A16E08434C49C1F88800207800F088
:102050004000402809D148488830006820F44050AA
:10206000616D08434449C1F88800207800F0800081
:10207000802809D140488830006820F44040A16D94
:1020800008433D49C1F88800208800F48070B0F50D
:10209000807F09D138488830006820F44030E16DF5
:1020A00008433549C1F88800206800F48010B0F575
:1020B000801F09D130489C30006820F00300216E59
:1020C00008432D49C1F89C00208800F40050B0F569
:1020D000005F1FD128488830006820F04060616FA1
:1020E0000843254988310860606FB0F1006F06D160
:1020F0002148C06840F480101F49C8600AE0606F42
:10210000B0F1806F06D10121201D01F06FFC054662
:1021100005B1A846206800F40020B0F5002F45D195
:1021200000BFA06FB0F5804F08D113489C30006805
:1021300040F480401049C1F89C0011E00E489C30EA
:10214000006820F480400C49C1F89C000A4888309F
:10215000006820F04060A16F08430749C1F888007B
:1021600000BFA06FB0F1006F0AD10348C06840F40F
:1021700080100149C86019E0001002400070004062
:10218000A06FB0F5804F06D17248C06840F480302F
:102190007049C8600AE0A06FB0F1806F06D10121DC
:1021A000201D01F023FC054605B1A846206800F477
:1021B0008020B0F5802F1FD166488830006820F05D
:1021C0004060E16F0843634988310860E06FB0F117
:1021D000006F06D15F48C06840F480105D49C86058
:1021E0000AE0E06FB0F1806F06D10121201D01F0FF
:1021F000FDFB054605B1A846208800F48040B0F5F7
:10220000804F16D153488830006820F04050D4F8F1
:10221000801008434F4988310860D4F88000B0F13D
:10222000805F06D10221201D01F0E0FB054605B1CB
:10223000A846206800F48030B0F5803F0AD14548B8
:102240009C30006820F00400D4F884100843414911
:10225000C1F89C00206800F40010B0F5001F0AD1FE
:102260003C489C30006820F01800D4F888100843DF
:102270003849C1F89C00206800F48000B0F5800F58
:102280002BD13448006820F0805032490860FFF7B5
:10229000BDFB074606E0FFF7B9FBC01B022801D9CA
:1022A000032505E02B48006800F000500028F2D11B
:1022B00000BF85B927489C30006820F44030D4F82E
:1022C0008C1008432349C1F89C00022104F120002E
:1022D00001F050FC054605B1A846206800F4000056
:1022E000B0F5000F17D11B489C30006820F48050D7
:1022F000D4F89010084317499C310860D4F8900036
:10230000B0F5805F07D1012104F1200001F032FC1B
:10231000054605B1A846206800F08070B0F1807FC6
:1023200015D10C489C30006820F44010D4F894106B
:10233000084308499C310860D4F89400B0F5001FA8
:1023400005D10448C06840F480100249C860404686
:10235000BDE8F883001002402DE9F04104460D4627
:10236000002714B90120BDE8F0817448006800F02E
:102370000F00A8420ED27148006820F00F002843D9
:102380006E4908600846006800F00F00A84201D0BE
:102390000120E8E7207800F00100002873D0606891
:1023A00003282BD16648006800F0007008B90120AE
:1023B000D9E701F0A3FC6349884247D960488068A7
:1023C00000F0F00048B95E48806820F0F00040F06E
:1023D00080005B498860802738E0207800F00200A8
:1023E000022833D1A06888BB5548806820F0F000EF
:1023F00040F0800052498860802727E0606802280A
:1024000006D14F48006800F4003088B90120AAE7DF
:10241000606830B94A48006800F0020040B9012005
:10242000A1E74748006800F4806008B901209AE7F6
:1024300000F0DCF84349884208D94148806820F020
:10244000F00040F080003E49886080273C4880686A
:1024500020F003006168084339498860FFF7D6FA25
:10246000064608E0FFF7D2FA801B41F28831884225
:1024700001D9032077E73248806800F00C006168DA
:10248000B0EB810FEED1207800F00200022808D1D5
:102490002B48806820F0F000A16808432849886034
:1024A00007E0802F05D12648806820F0F0002449FD
:1024B00088602248006800F00F00A8420ED91F482B
:1024C000006820F00F0028431C4908600846006897
:1024D00000F00F00A84201D0012044E7207800F06E
:1024E0000400042807D11648806820F4E060E16801
:1024F000084313498860207800F00800082808D1B4
:102500000F48806820F46050216940EAC1000C49FE
:10251000886000F06BF80A498968C1F303110A4A20
:10252000515C01F01F01C840084908600848006874
:10253000FFF78EFA8046404615E700000020024073
:102540000010024000B4C404DC770008E8EF00206B
:10255000F0EF00200F2202600D4A926802F00302A1
:1025600042600B4A926802F0F0028260084A926868
:1025700002F4E062C260064A926802F46052D20835
:102580000261044A126802F00F020A6070470000FC
:10259000001002400020024001480068704700001F
:1025A000E8EF002000B5FFF7F7FF05498968C1F3A0
:1025B0000221044A515C01F01F01C84000BD000027
:1025C00000100240EC77000800B5FFF7E5FF054971
:1025D0008968C1F3C221044A515C01F01F01C8405F
:1025E00000BD000000100240EC770008F0B50023A9
:1025F0000020DFF8D4C0DCF808C00CF00C01DFF8D4
:10260000C8C0DCF80CC00CF0030719B10C291ED1AE
:10261000012F1CD1DFF8B0C0DCF800C00CF0080CB2
:10262000BCF1000F06D1DFF8A0C0DCF894C0CCF3F9
:10263000032305E0DFF890C0DCF800C0CCF30313FF
:10264000DFF888C05CF8233041B9184606E0042959
:1026500001D11F4802E0082900D11E480C2932D1BF
:10266000DFF864C0DCF80CC00CF00304012C09D0C6
:10267000022C02D0032C04D101E0154A04E0154AD3
:1026800002E000BF1A4600BF00BFDFF83CC0DCF824
:102690000CC0CCF3031C0CF10106DFF82CC0DCF8F5
:1026A0000CC0CCF3062C0CFB02FCBCFBF6F2DFF8F2
:1026B00018C0DCF80CC0CCF3416C0CF1010C4FEAF3
:1026C0004C05B2FBF5F0F0BD00100240F4770008B5
:1026D0000024F40000127A002DE9F843044614B9EE
:1026E0000120BDE8F883F948806800F00C07F7483E
:1026F000C06800F00306207800F01000102876D1A2
:102700001FB10C2F75D1012E73D1F048006800F075
:10271000020018B1A06908B90120E2E7EB48216A7C
:10272000006800F0080020B1E848006800F0F00000
:1027300005E0E6489430006800F4706000098142CA
:102740001FD9206A01F024FB08B10120C9E700BFAE
:10275000DE48006840F00800DC4908600846006870
:1027600020F0F000216A0843D849086000BF0846FD
:10277000406820F47F40E16940EA0120D349486085
:102780001EE000BFD148006840F00800CF49086053
:102790000846006820F0F000216A0843CB49086031
:1027A00000BF0846406820F47F40E16940EA01200C
:1027B000C6494860206A01F0EBFA08B1012090E7B1
:1027C000FFF714FFC1498968C1F30311C04A515C86
:1027D00001F01F01C840BF490860BF480068FFF70B
:1027E00037F98046B8F1000F4ED0404679E74BE00C
:1027F000FFE7A06980B3B548006840F00100B34925
:102800000860FFF703F9054606E0FFF7FFF8401BF5
:10281000022801D9032064E7AC48006800F00200F8
:102820000028F2D000BFA948006840F00800A7497E
:1028300008600846006820F0F000216A0843A349B8
:10284000086000BF0846406820F47F40E16940EA24
:1028500001209E49486017E0FFE79C48006820F08F
:1028600001009A490860FFF7D1F8054606E0FFF736
:10287000CDF8401B022801D9032032E793480068B5
:1028800000F002000028F2D1207800F001000028BA
:102890005CD0082F03D00C2F0AD1032E08D18B480F
:1028A000006800F4003088B3606878BB012018E746
:1028B00000BF6068B0F5803F06D18448006840F4EE
:1028C0008030824908601AE06068B0F5A02F0BD113
:1028D0007E48006840F480207C4908600846006813
:1028E00040F4803008600AE07848006820F48030C6
:1028F000764908600846006820F48020086000BF20
:10290000606890B1FFF782F8054607E01EE0FFF728
:102910007DF8401B642801D90320E2E66B4800687B
:1029200000F400300028F2D010E0FFF76FF8054601
:1029300006E0FFF76BF8401B642801D90320D0E6BE
:102940006248006800F400300028F2D1207800F0DE
:102950000200022852D1042F03D00C2F14D1022ED2
:1029600012D15A48006800F4806018B1E06808B9D4
:102970000120B6E65548406820F0FE40217C40EA40
:1029800001605249486039E0E06800B34F48006890
:1029900040F480704D490860FFF738F8054606E0BE
:1029A000FFF734F8401B022801D9032099E6474875
:1029B000006800F480600028F2D04448406820F0AD
:1029C000FE40217C40EA01604049486016E03F48F3
:1029D000006820F480703D490860FFF717F805464D
:1029E00006E0FFF713F8401B022801D9032078E620
:1029F0003648006800F480600028F2D1207800F0AA
:102A00000800082836D16069D0B130489430006899
:102A100040F001002D49C1F89400FEF7F7FF05468C
:102A200006E0FEF7F3FF401B022801D9032058E619
:102A300026489430006800F002000028F1D019E028
:102A400022489430006820F001002049C1F8940029
:102A5000FEF7DCFF054606E0FEF7D8FF401B022824
:102A600001D903203DE619489430006800F00200C7
:102A70000028F1D1207800F00400042873D14FF031
:102A800000091248806D00F0805078B900BF0F48EF
:102A9000806D40F080500D4988650846806D00F0DB
:102AA0008050009000BF00BF4FF001090B48006844
:102AB00000F4807008BB0948006840F48070074942
:102AC0000860FEF7A3FF054611E000000010024079
:102AD000DC770008E8EF0020F0EF002000700040F5
:102AE000FEF794FF401B022801D90320F9E5B748FF
:102AF000006800F480700028F2D000BFA0680128B0
:102B000008D1B348006840F00100B1499039C1F8DC
:102B1000900021E0A06805280FD1AD48006840F082
:102B20000400AB499039C1F890000846D0F89000F5
:102B300040F00100C1F890000EE0A548006820F0C8
:102B40000100A3499039C1F890000846D0F89000E0
:102B500020F00400C1F8900000BFA068A0B1FEF70B
:102B600055FF054609E02EE0FEF750FF401B41F2FD
:102B70008831884201D90320B3E59548006800F008
:102B800002000028F0D012E0FEF740FF054608E002
:102B9000FEF73CFF401B41F28831884201D90320F7
:102BA0009FE58B48006800F002000028F0D1B9F1E1
:102BB000010F07D186489038806D20F080508449FD
:102BC0009039886500BF207800F02000202838D197
:102BD000606AD8B17E480830006840F001007C4946
:102BE0009039C1F89800FEF711FF054606E0FEF7A0
:102BF0000DFF401B022801D9032072E574480830FC
:102C0000006800F002000028F1D01AE07048083097
:102C1000006820F001006E499039C1F89800FEF775
:102C2000F5FE054606E0FEF7F1FE401B022801D93D
:102C3000032056E566480830006800F002000028CE
:102C4000F1D1A06A00285BD00C2F78D0A06A0228AE
:102C500057D15F489038006820F080705C49903907
:102C60000860FEF7D3FE054606E0FEF7CFFE401BE8
:102C7000022801D9032034E555489038006800F057
:102C800000700028F1D1D4E90B10401E41EA001178
:102C9000606B41EA0021A08F0122C2EB500041EAA3
:102CA00040514020005DC2EB500041EA40613820B5
:102CB000005D41EAC06046499039C968454A114003
:102CC000084343499039C8600846006840F0807066
:102CD00008600846C06840F08070C860FEF796FE45
:102CE000054606E0FEF792FE401B022801D90320AC
:102CF000F7E437489038006800F000700028F1D001
:102D000061E033489038006820F080703049903995
:102D100008600846006800F0205020B90846C068E6
:102D200020F00300C8602A489038C0682A4908404B
:102D300027499039C860FEF769FE054607E00EE0B6
:102D4000FEF764FE401B022801D90320C9E4204895
:102D50009038006800F000700028F1D133E0A06ADC
:102D6000012800D1BDE41A489038C66806F0030176
:102D7000E06A814225D106F0F001206B401EB1EBE4
:102D8000001F1ED106F4FE41606BB1EB002F18D17D
:102D900006F078413820005DB1EBC06F11D106F428
:102DA000C001A08F0122C2EB5000B1EB405F08D1FF
:102DB00006F0C0614020005DC2EB5000B1EB406FF7
:102DC00001D001208DE400208BE400000070004061
:102DD000901002400C809D01FFFFEEFE024610683D
:102DE00000F1500303EB81031868704708B50368CE
:102DF00050330093009B03EB81030093009B1A6008
:102E000008BD704710B504464FF480100A490860A9
:102E10002068C068C0F3802050B12068C06800F00E
:102E2000800060F490602168C8602046FFF7E9FFE9
:102E3000012084F8210010BD1404014070B504463F
:102E40000125002C4FD094F8210028B9002084F8E7
:102E50002000204600F04CF8022084F8210000BF3A
:102E6000CA202168486253202168486200BF20467A
:102E700001F02EF80546002D35D1206880681B49E9
:102E8000084021688860216960680843A169084397
:102E9000216889680843216888602168E0680861C2
:102EA00020680169208941EA0040216808612046C4
:102EB00001F030F80546B5B92068C06C20F0030079
:102EC0002168C8646169E06908432168C96C0843E6
:102ED0002168C86400BFFF202168486200BF15B99F
:102EE000012084F82100284670BD0000BFFF8FFF3D
:102EF000704700002DE9F04705460C46174600BF15
:102F000095F82000012802D10220BDE8F0870120B9
:102F100085F8200000BF022085F821004FB96078B5
:102F200000F01000102804D1607800F0EF000A30A3
:102F3000607097B9E07800F076FF4FEA004960785A
:102F400000F071FF49EA0029A07800F06CFF49EA1F
:102F50000009207849EA403809E0E0780004617807
:102F600040EA0120A1780843217840EA413800BFB7
:102F7000CA202968486253202968486200BF284651
:102F800000F0A6FF064646B90C4808EA000029688A
:102F90004860284600F0BEFF064600BFFF202968B3
:102FA000486200BF16B9012085F8210000BF00204B
:102FB00085F8200000BF3046A7E700003FFFFF0074
:102FC0002DE9F04704460D46904600BF94F82000D6
:102FD000012802D10220BDE8F087012084F82000FA
:102FE00000BF022084F8210000BFCA202168486287
:102FF00053202168486200BF204600F069FF064662
:10300000002E47D1B8F1000F1BD12068806800F076
:10301000400000B102E00020E87000BF287800F016
:1030200002FF4FEA0049687800F0FDFE49EA0029F6
:10303000A87800F0F8FE49EA0009E87849EA8057E4
:1030400012E02068806800F0400000B102E000203B
:10305000E87000BF28780004697840EA0120A97868
:103060000843E97840EA81571248384021680860EF
:103070002068806820F4802021688860D5E90301F9
:10308000084321688968084321688860204600F069
:1030900041FF064600BFFF202168486200BF16B905
:1030A000012084F8210000BF002084F8200000BF28
:1030B000304690E77F7F7F0070B504462068C06887
:1030C00020F0A0002168C860FEF7A0FC054607E0DC
:1030D000FEF79CFC401BB0F57A7F01D9032070BD40
:1030E0002068C06800F020000028F1D00020F6E73A
:1030F0007047014691F85D0070470000F8B504463E
:103100002068466820688568C5F3801048B905F0D6
:10311000010030B1C6F3801018B12046E16C884739
:10312000F8BDC5F3400030B1C6F3C01018B1204659
:10313000216D8847F4E7C5F3401030B9C5F380101E
:1031400018B9C5F3002000287CD0C6F34010002831
:103150007DD0C5F38010F0B194F85D0003280ED047
:10316000206E40F00400206600BF00200090206820
:10317000C068009020688068009000BF0BE000BF2E
:10318000002000902068C06800902068806800904F
:1031900000BF00BFC4E7C5F3401088B1206E40F007
:1031A0000100206600BF0020009020688068009029
:1031B0002068006820F040002168086000BF00BF60
:1031C000C5F3002058B1206E40F00800206600BF13
:1031D0000020009020688068009000BF00BF206E33
:1031E00078B32068406820F0E00021684860012042
:1031F00084F85D0006F00200022802D006F001000B
:1032000008B32068406820F0030021684860A06D82
:1032100050B11048A16D8863A06DFEF7A1F818B1F8
:10322000206E40F040002066606D50B10948616D2D
:103230008863606DFEF794F818B1206E40F040008E
:10324000206603E003E02046FFF752FF68E700BF77
:1032500066E700006944000870470000F0B50446C6
:10326000002700BF94F85C00012801D10220F0BDC6
:10327000012084F85C0000BF94F85D506668012D61
:1032800008D0B6F5827F03D1A06808B9042D01D01B
:10329000022750E009B102B10BB901274BE094F8C5
:1032A0005D00042802D0052084F85D00002020661F
:1032B000A163A387E3872264A4F84430A4F84630CE
:1032C000E068B0F5E06F04D91E48E0641E48206550
:1032D00003E01E48E0641E482065E068B0F5E06F3A
:1032E00001D8022B08D32068406820F48050D4F81D
:1032F00000C0CCF8040007E02068406840F480502B
:10330000D4F800C0CCF804002068406840F0E00029
:10331000D4F800C0CCF804002068006800F0400039
:10332000402807D02068006840F04000D4F800C072
:10333000CCF8000000BF00BF002084F85C0000BF94
:10334000384694E7D742000881430008114300083B
:10335000B7430008704770477047704710B5044680
:103360000CB9012010BD94F83D0028B9002084F864
:103370003C00204600F00CF8022084F83D00211D9E
:10338000206801F0B7FA012084F83D000020E9E749
:1033900038B504462F49206888421BD100BF2E480B
:1033A000006E40F400502C4908660846006E00F498
:1033B0000050009000BF00BF6FF00100274909686E
:1033C0000861002201212C20FEF7BAFB2C20FEF719
:1033D000A7FB3EE02249206888421BD100BF1E485F
:1033E000806D40F002001C4988650846806D00F041
:1033F0000200009000BF00BF6FF00100194909688A
:103400000861002206211D20FEF79AFB1D20FEF711
:1034100087FB1EE01449206888421AD100BF0E487D
:10342000806D40F008000C4988650846806D00F00A
:103430000800009000BF00BF6FF001000B49096851
:103440000861002206213220FEF77AFB3220FEF7C7
:1034500067FB38BD00340140001002405CEB0020E7
:10346000000400409CEB0020000C0040DCEB00203E
:1034700001460868C06840F001000B68D860086821
:103480008068084B00EA0302062A08D0B2F5803FA4
:1034900005D00868006840F001000B681860002043
:1034A000704700000700010001460868C06820F06E
:1034B00001000A68D06000BF0868006A41F211127A
:1034C000104050B90868006A9210104028B9086886
:1034D000006820F001000A68106000BF00207047FB
:1034E000704710B5044620680069C0F34000D8B1A9
:1034F0002068C068C0F34000B0B16FF002002168DE
:103500000861012020772068806900F0030018B16D
:103510002046FFF7E5FF05E0204600F0BEF8204614
:1035200000F0BCF80020207720680069C0F380001C
:10353000D8B12068C068C0F38000B0B16FF004005B
:1035400021680861022020772068806900F44070BB
:1035500018B12046FFF7C4FF05E0204600F09DF8B3
:10356000204600F09BF80020207720680069C0F317
:10357000C000D8B12068C068C0F3C000B0B16FF01F
:10358000080021680861042020772068C06900F0E5
:10359000030018B12046FFF7A3FF05E0204600F026
:1035A0007CF8204600F07AF8002020772068006937
:1035B000C0F30010D8B12068C068C0F30010B0B1EB
:1035C0006FF0100021680861082020772068C0692A
:1035D00000F4407018B12046FFF782FF05E0204656
:1035E00000F05BF8204600F059F8002020772068B2
:1035F000006900F0010058B12068C06800F00100C7
:1036000030B16FF0010021680861204600F047F8F2
:1036100020680069C0F3C01058B12068C068C0F3CA
:10362000C01030B16FF08000216808612046FFF7BC
:1036300093FE20680069C0F3002058B12068C0687C
:10364000C0F3C01030B16FF480702168086120466B
:10365000FFF781FE20680069C0F3801058B1206830
:10366000C068C0F3801030B16FF04000216808617D
:10367000204600F015F820680069C0F3401058B1EA
:103680002068C068C0F3401030B16FF0200021689E
:1036900008612046FFF761FE10BD70477047704714
:1036A0007047704770477047704700002DE9F0473A
:1036B00004462068C569206806682068876805F0A8
:1036C0000F08B8F1000F0FD105F0200060B106F02F
:1036D000200010B907F0805030B1E06E10B12046E4
:1036E000E16E8847BDE8F087B8F1000F7ED06648EC
:1036F000384018B906F490700028F7D005F00100A2
:1037000058B106F4807040B1012021680862D4F8F5
:10371000880040F00100C4F8880005F0020058B1AC
:1037200007F0010040B1022021680862D4F8880047
:1037300040F00400C4F8880005F0040058B107F018
:10374000010040B1042021680862D4F8880040F0EC
:103750000200C4F8880005F0080070B106F02000EF
:1037600010B94948384040B1082021680862D4F8AF
:10377000880040F00800C4F88800D4F888000028C9
:1037800043D005F0200050B106F0200010B907F03A
:10379000805020B1E06E10B12046E16E8847D4F829
:1037A00088902068806800F04000402802D009F02E
:1037B000080020B3204601F061F92068806800F01D
:1037C0004000402817D12068806820F04000216820
:1037D0008860A06F58B12D48A16F8863A06FFDF776
:1037E000BFFD90B1A06F816B88470EE00EE02046D0
:1037F000FFF75AFF09E02046FFF756FF05E0204695
:10380000FFF752FF0020C4F888006BE705F4801032
:1038100050B107F4800038B14FF48010216808627D
:103820002046FFF740FF5DE705F0800058B106F045
:10383000800010B907F4000028B1206F10B12046B5
:10384000216F88474EE705F0400030B106F0400098
:1038500018B1204601F026F944E705F4000030B124
:1038600006F0804018B12046FFF71CFF3AE705F04C
:10387000807030B106F0004018B12046FFF711FF0C
:1038800030E700BF2EE7000001000010C14900082A
:1038900070B504460E461546D4F8800020284BD15A
:1038A00006B10DB9012070BD00BF94F87C0001285D
:1038B00001D10220F7E7012084F87C0000BF44F822
:1038C000506FA580E5800020A06321202063606AFE
:1038D000503C08B31948616FC8621948616F0863AA
:1038E0001848616F48630020616F8863236803F1A3
:1038F00028022B46216D606FFDF7F3FD60B11020AB
:10390000C4F8880000BF002084F87C0000BF20209D
:10391000C4F880000120C6E740202168086200BF8B
:10392000002084F87C0000BF2068806840F08000A0
:10393000216888600020B6E70220B4E7374A000813
:103940006F4A0008D949000810B5044603492068A9
:10395000884201D1FCF7C4FE10BD000000380140D0
:103960007047000003E002A1002000F097FBFAE797
:10397000486172644661756C740D0A00704700BF3F
:10398000FEE770477CB504460D46002001902246B4
:103990000DA100F083FB012D09D0022D11D10023D0
:1039A000012221461048006802F08EFE0AE001A8BC
:1039B00000230122214600900B48006802F018FF06
:1039C00000E000BF00BF7CBD4E65745F5461736B47
:1039D0005F4576656E745F53746172743A30782512
:1039E0003034580D0A000000080000202DE9F04195
:1039F00004460F4600255B48C06800F0030050B144
:103A00005848C06800F003002168884201D120684E
:103A100078BB01252DE02068012804D0022809D0B8
:103A200003281AD10DE04F48006800F0020000B9E9
:103A3000012514E04B48006800F4806000B90125BE
:103A40000DE04848006800F4003028B94548006897
:103A500000F4802000B9012501E0012500BF00BF6E
:103A60003DB94048C06820F00300216808433D4943
:103A7000C860002D73D13B48006820F08060394950
:103A80000860FDF7C3FF064606E0FDF7BFFF801B99
:103A9000022801D9032505E03248006800F00060E3
:103AA0000028F2D100BF002D59D187B9A0680002CB
:103AB000217B40EAC1616068401E41EA001029494B
:103AC0000969294A114008432649086128E0012F65
:103AD00013D1A0680002218A0122C2EB510140EA01
:103AE00041516068401E41EA00101E4909691F4AA1
:103AF000114008431B49086112E0A0680002217DC3
:103B00000122C2EB510140EA41616068401E41EA76
:103B1000001014490969164A114008431149086107
:103B20001048006840F080600E490860FDF76EFFA5
:103B3000064606E0FDF76AFF801B022801D903252F
:103B400005E00848006800F000600028F2D000BFDF
:103B50002DB904480069A169084302490861284653
:103B6000BDE8F081001002400F80FF070F809FFF2B
:103B70000F80FFF92DE9F04104460F4600255B4810
:103B8000C06800F0030050B15848C06800F003005E
:103B90002168884201D1206878BB01252DE020688A
:103BA000012804D0022809D003281AD10DE04F487B
:103BB000006800F0020000B9012514E04B480068DD
:103BC00000F4806000B901250DE04848006800F469
:103BD000003028B94548006800F4802000B901256C
:103BE00001E0012500BF00BF3DB94048C06820F09A
:103BF0000300216808433D49C860002D73D13B484C
:103C0000006820F0805039490860FDF7FFFE064645
:103C100006E0FDF7FBFE801B022801D9032505E025
:103C20003248006800F000500028F2D100BF002D9B
:103C300059D187B9A0680002217B40EAC161606860
:103C4000401E41EA001029494969294A11400843A8
:103C50002649486128E0012F13D1A0680002218A7B
:103C60000122C2EB510140EA41516068401E41EA25
:103C700000101E4949691F4A114008431B49486109
:103C800012E0A0680002217D0122C2EB510140EA4E
:103C900041616068401E41EA001014494969164AB2
:103CA00011400843114948611048006840F08050B5
:103CB0000E490860FDF7AAFE064606E0FDF7A6FEDF
:103CC000801B022801D9032505E00848006800F0A0
:103CD00000500028F2D000BF2DB904484069A16906
:103CE0000843024948612846BDE8F08100100240BF
:103CF0000F80FF070F809FFF0F80FFF970B5002234
:103D00001F4EF66806F00306012E11D11C4E3668D0
:103D100006F008062EB91A4E94363668C6F303220A
:103D200003E0174E3668C6F30312164E56F82220EB
:103D3000134EF66806F00303012B09D0022B02D0C4
:103D4000032B04D101E0104904E0104902E000BF58
:103D5000114600BF00BF0A4EF668C6F30316751C75
:103D6000074EF668C6F306264E43B6FBF5F1044E41
:103D7000F668C6F34166761C7400B1FBF4F070BDC2
:103D800000100240F47700080024F40000127A00CA
:103D9000F8B5044600262148806D00F0805018B127
:103DA000FDF7B0FF054616E000BF1C48806D40F0EF
:103DB00080501A4988650846806D00F08050009058
:103DC00000BF00BFFDF79EFF05461448806D20F040
:103DD000805012498865B5F5007F07D1802C0CD939
:103DE000A02C01D9022608E0012606E0802C01D390
:103DF000022602E0702C00D101260948006820F05C
:103E00000F003043064908600846006800F00F00C4
:103E1000B04201D00120F8BD0020FCE700100240B4
:103E200000200240704702460023114603E05B1C5D
:103E3000A1F10A00C1B20A29F9D2180741EA1060BB
:103E40007047000000B5B9B0FDF776FF0C20289050
:103E50000020329001202A9000202D9028A8FEF703
:103E60003BFC4FF4003001904012279001A8FDF771
:103E70006DFF1448006840F0180012499039C1F8ED
:103E800090000846D0F8900040F40040C1F890003F
:103E9000002211460320FDF753FE0320FDF740FEEC
:103EA00009480A490860002048607F21074881606E
:103EB000FF21C160002101618161C161FEF7BEFF88
:103EC00039B000BD9010024000280040B81C01200D
:103ED00070B5044600262068C06800F04000B8B9FC
:103EE000701E2168C860FDF791FD054609E0FDF7E9
:103EF0008DFD401BB0F57A7F03D90326032084F89B
:103F000021002068C06800F0400008B9032EEED1FF
:103F1000304670BD70B5044600251748006820F093
:103F2000800015490860081F006800F0200040B9B3
:103F30002046FFF7C1F8E0B1032084F821000325F3
:103F400017E00D48001F006820F020000A49091FF3
:103F500008602046FFF7B0F818B1032084F821006C
:103F600003250548001F006840F020000249091F92
:103F70000860284670BD00000C28004010B50248BB
:103F8000FEF740FF10BD0000B81C012010B5002452
:103F900000F076FB0446012C02D101F039FF0BE062
:103FA00009E01E20FDF7FEFA0020FDF71BF803A133
:103FB000002000F073F8F4E710BD000052544F5396
:103FC000206973206E6F742073746172740D0A001F
:103FD0002DE9F04104460D46164600BF0D48007815
:103FE00008B900F08BFD00BFEFF3118007462020D9
:103FF00080F3118800BF00BF32462946204600F0FA
:104000000BF88046F8B280F3118800BF00BF40462D
:10401000BDE8F081902D01202DE9F0470746884644
:104020001646C24607EB47011B4800EBC109D9F809
:10403000140020B1012811D0022826D11EE04846E4
:1040400000F094FD0546B54201D2002405E0344657
:1040500032465146484600F0E5FE18E0484600F07A
:1040600085FD0546B54201D2284600E030460446AB
:1040700022465146484600F0D5FE08E032465146F9
:10408000484600F096FE044601E0002400BF00BF51
:104090002046BDE8F0870000A82D01200FB438B5F8
:1040A000044606A800906A462046059900F007F8E5
:1040B000054600200090284638BC5DF814FB2DE929
:1040C000F04F99B082460D46144603A81490402044
:1040D000159000201690CDF860A0179000BF2E78A4
:1040E0006D1C06B9DDE0252E79D100274FF00109BE
:1040F00000BF2E78232E12D02B2E0CD02D2E02D0C6
:10410000302E10D103E047F001076D1C0EE047F0A0
:1041100002076D1C0AE047F004076D1C06E047F03B
:1041200008076D1C02E04FF0000900BF00BFB9F1A5
:10413000000FDED14FF0000800BF2E78302E01DBDB
:10414000392E00DD07E06D1CA6F1300008EB880178
:1041500000EB4108F1E700BF002013902E782E2ECF
:1041600012D16D1C00BF2E78302E01DB392E00DD00
:1041700009E06D1CA6F13000139901EB810100EB01
:1041800041001390EFE700BF2E7800BF6C2E01D0E6
:10419000682E02D16D1C2E7800E000E0F6E700BF2B
:1041A000702E5DD008DC252E6AD0582E35D0632EB7
:1041B00009D0642E69D113E0732E3CD0752E1DD02A
:1041C000782E62D128E02168081D2060D1F8009087
:1041D00009F0FF0B594614A800F0C9FD56E058E05D
:1041E0002168081D2060D1F80090CDE900870A22DF
:1041F000494614A8139B00F0C7FC47E02168081D3E
:104200002060D1F80090CDE900870A22494614A821
:10421000139B00F033FD39E000BF2168081D2060CA
:10422000D1F80090CDE900871022494614A8139BCD
:1042300000F024FD2AE02168081D2060D1F800B0BC
:1042400000BF9BF800600BF1010B06B906E0314698
:1042500014A800F08CFD17980028F2DA00BF15E0D2
:104260002168081D2060D1F80090002008210B462D
:104270001022CDE90010494614A800F0FFFC05E02B
:10428000252114A800F073FD00E000BF00BF6D1CE5
:1042900003E0314614A800F06AFD17980028BFF625
:1042A0001EAF00BF179800280ADD169820B103A999
:1042B0005046169AFFF78CFEDDE916100844179059
:1042C000179819B000F000B830BCBDE8C08F10B529
:1042D000FCF70AFD10BD10B504462068C068216CCB
:1042E0000880206C801C2064B4F84600401EA4F8AE
:1042F0004600B4F8460050B92068406820F04000FD
:1043000021684860E08F10B9204600F07DF810BDAC
:1043100010B50446B4F84600012816D92068C068D4
:10432000216C0880206C801C2064B4F84600801E3C
:10433000A4F84600B4F84600012812D1206840686D
:1043400040F48050216848600BE02068007B216CBD
:104350000870206C401C2064B4F84600401EA4F88D
:104360004600B4F8460050B92068406820F060006C
:1043700021684860E08F10B9204600F045F810BD74
:1043800010B50446A06B00882168C860A06B801C33
:10439000A063E08F401EE087E08F58B92068406836
:1043A00020F0800021684860B4F8460010B920462B
:1043B00000F02AF810BD10B50446E08F02280AD399
:1043C000A06B00882168C860A06B801CA063E08F90
:1043D000801EE08709E0A06B007821680873A06B5D
:1043E000401CA063E08F401EE087E08F58B9206832
:1043F000406820F0800021684860B4F8460010B999
:10440000204600F001F810BD70B50446FDF7FEFA35
:1044100005462068406820F02000216848602A4650
:104420006421204600F02BF818B1206E40F02000E7
:104430002066206E88B994F85D00042806D101201A
:1044400084F85D002046FEF707FF0CE0012084F8A9
:104450005D002046FEF77EFF05E0012084F85D0048
:104460002046FEF745FE70BD70B50546AC6A0020DB
:10447000A4F84600E0872046FEF73AFE70BDF8B586
:1044800004460E461546334600224FF4C0512046DE
:10449000009500F026F828B1206E40F0200020663C
:1044A0000320F8BD3346002280212046009500F00D
:1044B0006DF828B1206E40F0200020660320F0E760
:1044C000334600224FF4C0612046009500F009F801
:1044D00028B1206E40F0200020660320E1E7002094
:1044E000DFE72DE9F04104460E4617461D46DDF88C
:1044F000188044E0B6F5C06F02D10FB92068007B88
:10450000681CD8B3FDF782FAA0EB0800A84200D2DD
:10451000A5BB2068406820F0E00021684860606822
:10452000B0F5827F0DD1A068B0F5004F03D0A06830
:10453000B0F5806F05D12068006820F04000216848
:104540000860A06AB0F5005F0DD100BF2068006868
:1045500020F40050216808602068006840F4005092
:104560002168086000BF012084F85D0000BF0020C2
:1045700084F85C0000BF0320BDE8F081FFE72068FD
:1045800080683040B842B5D10020F5E72DE9F04110
:1045900004460E4617461D46DDF818803EE0681CAE
:1045A000D8B3FDF733FAA0EB0800A84200D2A5BBB0
:1045B0002068406820F0E000216848606068B0F53D
:1045C000827F0DD1A068B0F5004F03D0A068B0F590
:1045D000806F05D12068006820F0400021680860E5
:1045E000A06AB0F5005F0DD100BF2068006820F41C
:1045F0000050216808602068006840F4005021687D
:10460000086000BF012084F85D0000BF002084F82E
:104610005C0000BF0320BDE8F081FFE720688068F0
:104620003040B04201D1012000E00020B842B6D1B4
:104630000020F0E707A10020FFF730FDFBF716FF91
:1046400007E009A10020FFF729FD40F6B83001F08E
:1046500063FBF6E75365636F6E64205461736B20F0
:10466000456E7465720D0A005365636F6E64205465
:1046700061736B204C6F6F70696E670D0A000000EC
:104680001CB500240648042100230A02CDE90010CD
:1046900004A1074801F0E4FF044620461CBD0000C9
:1046A000000000205365636F6E645F5461736B009C
:1046B0003546000810B500BF502080F31188BFF3C5
:1046C0004F8FBFF36F8F00BF02F060F918B14FF04A
:1046D00080500449086000BF002080F3118800BFAB
:1046E00010BD000004ED00E000B597B0442106A81D
:1046F000FBF709FE142101A8FBF705FE0020FDF7DA
:1047000075FA08B1FCF70CFD012006900004079033
:104710000220109003211191012112911E21139169
:10472000022114911591169106A8FDF7D5FF08B145
:10473000FCF7F6FC0F20019003200290002003906C
:1047400004900590052101A8FDF706FE08B1FCF7CD
:10475000E7FC17B000BD00001048006840F470008E
:104760000E4908600E48006840F001000C490860DE
:1047700000208860084600680A4908400849086027
:104780008814C8600846006820F480200860002073
:104790008861C803014980390860704788ED00E0EE
:1047A00000100240FFFFF6EA10B515A10020FFF748
:1047B00075FC00F031F80820164981F8A80D042096
:1047C00081F8A90D032081F8AA0D012081F8AB0D15
:1047D000802081F8AC0D084690F8AC0D91F8A91D29
:1047E00010FB01F04FF6FF7101EA40000949A1F802
:1047F000AE0D084690F8AC0D8000A1F8B00D10BDCC
:1048000053797374656D506172616D5F496E69743F
:104810000D0A000030FA002010B540F69C12104935
:104820001048FBF79EFF40F69C110E48FCF7EEFB8C
:1048300098B140F69C120C490A48FBF792FF40F6EB
:104840009C110848FCF7E2FB38B140F69C1207497E
:104850000448FBF73FFD00F00BF8002010BD0000FE
:1048600000E01F0890F0002000F01F08166E0008FE
:1048700010B540F69A110848FCF7C8FB0649A1F8A4
:104880009A0940F69C120548FBF778FF04A1002026
:10489000FFF704FC10BD000090F0002000E01F08AE
:1048A00053797374656D506172616D5F53617665A4
:1048B0000D0A000010B5FFF777FFFCF728F810BDD0
:1048C00010B5FCF731FA10BD10B5FCF73FF810BD7C
:1048D00010B5FCF733FA10BD10B50348FEF701FE22
:1048E000FDF79AF810BD0000E807012010B5FCF7AD
:1048F00035FA10BD10B50268294B98420ED0B0F1C0
:10490000804F0BD0274B984208D0274B984205D0B8
:10491000264B984202D0264B984203D122F07002D7
:104920004B681A431E4B984217D0B0F1804F14D0F9
:104930001C4B984211D01C4B98420ED01B4B9842F6
:104940000BD01B4B984208D01A4B984205D01A4BFB
:10495000984202D0194B984203D122F44072CB689E
:104960001A4322F080034C6943EA040202608B6818
:10497000C3620B6883620A4B98420BD00C4B98427F
:1049800008D00C4B984205D00B4B984202D00B4BF1
:10499000984201D10B6903630123436110BD0000FC
:1049A000002C01400004004000080040000C0040C2
:1049B00000340140004001400044014000480140F3
:1049C00070B50546AC6A0020A4F85E00A4F8560055
:1049D0002046FEF769FE70BD2DE9F0410546AC6A40
:1049E000D4F88060D4F884702068806800F080007B
:1049F000802807D1212E05D10020A4F8560020469A
:104A000000F061F82068806800F04000402807D17D
:104A1000222F05D10020A4F85E00204600F02EF8D9
:104A2000D4F8880040F01000C4F888002046FEF753
:104A30003BFEBDE8F08170B50546AC6A28680068A9
:104A400000F0200078B90020A4F8560020688068A3
:104A500020F08000216888602068006840F04000F5
:104A60002168086002E02046FEF76EFF70BD70B559
:104A70000446A56A2846FEF773FF70BD0168096801
:104A800021F490710268116001688968044A11403C
:104A9000026891602021C0F884100021C16670472F
:104AA000FEFFFFEF10B504462068006820F04000CC
:104AB000216808602020C4F880000020206720467C
:104AC000FEF742FF10BD0168096821F0C0010268CD
:104AD00011600168896821F4000102689160202159
:104AE000C0F88010704710B5FCF75AF910BD10B52A
:104AF000FCF77EF910BD00BFFEE7000010B5124CB8
:104B000003202061606111A0A0611349E1614FF4AD
:104B1000806121620021A1626162E1620BA02066D6
:104B20000E4961661021A16600212167E166616777
:104B30000BA1E01DFBF7F2FB0AA12046FBF7EEFB01
:104B40002020A07110BD0000902D01205465726DD1
:104B5000696E616C00000000382E0120383201209F
:104B600052545400534547474552000010B5014682
:104B70000A69CB689A4204D88C68641EE41AA018AB
:104B800001E0D41A601E10BD2DE9FC5F06460F46F9
:104B900092469846DDE90C45002F01DA784200E0A4
:104BA000384683464FF0010903E09BFBFAFB09F10D
:104BB0000109D345F9DAC84500D9C14634B1002FFF
:104BC00003DB05F00400042800D1641E05F0020098
:104BD00010B1B8F1000F11D005F0010070B96CB13F
:104BE00008E0641E2021304600F0C1F8F06800287B
:104BF00000DA02E00CB1A145F3D300BFF068002851
:104C000036DB002F05DA7F422D21304600F0AFF869
:104C100007E005F00400042803D12B21304600F002
:104C2000A6F8F068002823DB05F00200022814D162
:104C300005F0010088B9B8F1000F0ED16CB108E0A1
:104C4000641E3021304600F092F8F068002800DA47
:104C500002E00CB1A145F3D300BFF068002807DBE8
:104C60004346524639463046CDE9004500F006F845
:104C700000F000B83CBCBDE8C09F00002DE9FC5F1F
:104C80008046894615461E460C9CCDF804900127A7
:104C9000BB4605E00198B0FBF5F001900BF1010B6C
:104CA0000198A842F6D25E4500D9B3460D9800F0AF
:104CB0000100D0B9CCB10D9800F00200022803D158
:104CC00016B93020009001E02020009009E0641E19
:104CD0004046009900F04BF8D8F80C00002800DAA4
:104CE00002E00CB1A345F2D300BFD8F80C000028B5
:104CF00035DB09E0012E01D9761E04E0B9FBF7FA95
:104D0000AA4500D201E06F43F4E700BF00BFB9FB42
:104D1000F7FA0AFB1799134810F80A10404600F0FA
:104D200026F8D8F80C00002800DA03E0B7FBF5F706
:104D3000002FECD100BF0D9800F0010078B174B1E4
:104D400009E0641E2021404600F011F8D8F80C005C
:104D5000002800DA02E00CB1A345F2D300BF00F056
:104D600003B80000CA7700083CBCBDE8C09F70B51E
:104D700004460E46A568681C6168814206D3206817
:104D80004655681CA060E068401CE060D4E9011052
:104D900088420DD1A26821682069FFF719F9A1683E
:104DA000884203D04FF0FF30E06001E00020A060B7
:104DB00070BD2DE9F0470446894617464FF0000ABA
:104DC000E56800BFD4F81080A84503D9A8EB05001A
:104DD000461E04E0A5EB0800401CA1680E1AA0685E
:104DE000401BB04201D9304601E0A068401B064696
:104DF000BE4201D2304600E0384606466168481996
:104E000032464946FBF766FAB244B144BF1B35440B
:104E1000A068A84200D10025E560002FD2D15046FD
:104E2000BDE8F0872DE9F047044689461546E66857
:104E3000A068871BAF4208D9616888192A4649468D
:104E4000FBF748FA7019E06010E0B846616888190D
:104E500042464946FBF73EFAA5EB070809EB070176
:104E600042466068FBF736FAC4F80C80BDE8F0876C
:104E700002480068C0F30220704700000CED00E01B
:104E800010B5002804DB0A07130E054A135406E088
:104E90000A07140E034A00F00F031B1FD45410BD61
:104EA00000E400E018ED00E002E008C8121F08C1AD
:104EB000002AFAD170477047002001E001C1121F9B
:104EC000002AFBD170472DE9F04106460C461746F3
:104ED0001D462819B0F5805F03D94FF0FF30BDE8BB
:104EE000F08130192A463946FBF7F4F90020F6E73D
:104EF000FBF7D0FF62B6FFF7DDFCFFF747F806E0EF
:104F00004FF47A70FCF74EFB0020FCF76BF8F7E7E4
:104F10002DE9F04105460E461C4807681C4800680C
:104F2000001D00F091FD50B91948006890F82C1050
:104F30000120884017490968814316480160681CB0
:104F400038B936B112480168091D134800F0BAFD9E
:104F50001AE07C190E4800684460BC4207D20C4835
:104F60000168091D0D48006800F092FD0CE008483A
:104F70000168091D0A48006800F08AFD09480068B8
:104F8000844201D207480460BDE8F0812CF0002083
:104F900018F0002030F00020A033012020F0002085
:104FA0001CF0002048F0002010B5044600F096FDEB
:104FB00024480068401C234908602348006840B921
:104FC000214804600846006801280DD100F0DAF994
:104FD0000AE01E48006838B91B480068C06AE16AE8
:104FE000884201D81848046019480068401C1849D4
:104FF000086008460068606494F82C10012088401E
:1050000014490968084313490860E16A01EB81010A
:10501000114A02EB8100211D00F054FD00F088FDD3
:105020000A48006868B108480068C06AE16A8842B6
:1050300007D24FF0805009490860BFF34F8FBFF38C
:105040006F8F10BD28F0002018F0002034F00020F1
:1050500044F0002030F000208832012004ED00E010
:1050600010B500F03BFD10480068D0B90F4800F0C3
:10507000FFFC0F4800F0FCFC0C480E4908600C488F
:105080000D49086000220C210A2001F021F8064990
:1050900008600846006820B108A10348006800F0D5
:1050A000FFFD00F045FD10BD5CF00020B433012091
:1050B000C833012054F0002058F00020546D725184
:1050C0000000000010B516E000F008FD0C48C068B4
:1050D000C468201D00F0B8FC0A480068401E094959
:1050E000086009480068401E0749086000F020FD7C
:1050F000204600F05FF8044800680028E4D110BDA5
:105100008C33012028F0002024F0002070B50446E4
:105110000D46206C70B1216CE0680144E160D4E977
:105120000210884201D32168E1602846226CE168C0
:10513000FBF7D0F870BD2DE9F04104460F46154647
:105140004FF00008A66B206C48B9206800282CD1CD
:10515000A06801F0BFFC80460020A06025E07DB97A
:105160003946226C6068FBF7B5F8216C606808442A
:105170006060D4E90101884217D32068606014E0C0
:105180003946226CE068FBF7A5F8216CE068411A0B
:10519000E1602168E068884203D2216CA068411A6E
:1051A000E160022D01D106B1761E701CA06340465D
:1051B000BDE8F08110B50446206B00F0D7FC204616
:1051C00000F0D4FC10BD00000146084A12681268C5
:1051D0000AB9012200E000220A600A6822B9034AE3
:1051E0001268D268106800E00020704754F0002078
:1051F00030B54FF43433174800F007042CB1C01D0C
:1052000020F00700134C041B1B1B0246124C2260AB
:105210000024114D6C60D018083820F007000F4CA6
:10522000206000240D4D2D686C600C4D2D682C60A5
:105230001146441A4C60094C24680C60084D4C68B7
:105240002C60084D4C682C604FF00044064D2C60DB
:1052500030BD0000DC33012074F000207CF0002021
:1052600084F0002080F0002088F0002000BFFFF7CD
:1052700029FF064800680128F9D94FF080500449F9
:105280000860BFF34F8FBFF36F8FF0E788320120C4
:1052900004ED00E02DE9F04106460D46174698461C
:1052A000069C0DB9246000E02760E66325640121B7
:1052B000204600F03BFF84F84C80BDE8F0812DE9EA
:1052C000F05F82460E4690469B460A9F0C9C4FEA32
:1052D0008801A522206BFBF70FF8A8F10100216BD4
:1052E00001EB800929F0070909F0070008B901203E
:1052F00000E0002050B900BF502080F31188BFF3B8
:105300004F8FBFF36F8F00BF00BFFEE786B1002550
:1053100007E0715D04F134004155705D00B902E0B1
:105320006D1C102DF5D300BF00214320015502E074
:10533000002084F834000A2F00D30927E762E764CD
:1053400000202065201D00F0A0FB04F1180000F0F3
:105350009CFB2461C7F10A00A061646200206065C3
:1053600084F858005A465146484600F057FB2060E2
:105370000B9808B10B98046000F000B830BCBDE891
:10538000C09F000010B5002407E004EB84010F4A21
:1053900002EB810000F06CFB641C0A2CF5D30C4876
:1053A00000F066FB0B4800F063FB0B4800F060FB6D
:1053B0000A4800F05DFB0A4800F05AFB044809491E
:1053C000086004480849086010BD000088320120C8
:1053D0005033012064330120783301208C330120C5
:1053E000A03301201CF0002020F0002010B5014661
:1053F000164800E0006803688B42FBD3024643680E
:1054000013448B4204D143684C68234443600146F3
:105410000A464B6813440468A34211D10C4C03683C
:105420002468A34208D04B680468646823444B6036
:1054300003681B680B6005E0054B1B680B6001E00F
:1054400003680B60884200D0016010BD74F000203A
:105450007CF000202DE9F04104460D4616461F461B
:105460004FF0000865602461B5420CD8F01BA169BB
:10547000884202D34FF0010811E0211D094800685D
:1054800000F006FB0BE0BE4204D2BD4202D34FF057
:10549000010804E0211D0448006800F0F9FA4046C4
:1054A000BDE8F08158F0002054F0002070B50546AA
:1054B00000F014FBA86B08B9012400E0002400F000
:1054C00037FB204670BD70B5054600F007FBA86BA2
:1054D000E96B884201D1012400E0002400F028FBA0
:1054E000204670BDF8B505460F461A480068C068EA
:1054F000C468201D00F0A8FA94F8280000F0040009
:10550000E8B1A06941192B463A462046FFF7A2FFB1
:10551000D8B1002003462A4601460090204601F0FB
:1055200035FC064656B900BF502080F31188BFF302
:105530004F8FBFF36F8F00BF00BFFEE705E094F809
:10554000280020F0010084F828002046216A8847BE
:10555000F8BD000054F0002070B586B08BE00398D1
:105560000028FBDB059C606908B9012000E00020F1
:1055700010B9201D00F068FA02A800F0DDF8054619
:1055800003980A2875D2DFE800F00905073941635E
:1055900006083A4200BF00BF00BF00BF94F82800D1
:1055A00040F0010084F828000498A269811803469D
:1055B0002A462046FFF74EFFF8B12046216A884769
:1055C00094F8280000F00400B8B10020009004987E
:1055D000A169421800231946204601F0D7FB064670
:1055E00056B900BF502080F31188BFF34F8FBFF32F
:1055F0006F8F00BF00BFFEE700BF3BE000BF94F825
:10560000280020F0010084F8280033E000BF94F85F
:10561000280040F0010084F828000498A061A069E7
:1056200008B1012000E0002050B900BF502080F3F5
:105630001188BFF34F8FBFF36F8F00BF00BFFEE72E
:10564000A06941192B462A462046FFF703FF11E0C7
:1056500094F8280000F0020018B9204600F086FAFD
:1056600005E094F8280020F0010084F8280001E00B
:10567000FFE700BF00BF002203A90448006800F054
:10568000F5FE00287FF46BAF06B070BD5CF0002023
:10569000F8B505460C4600F005FC684600F04CF8ED
:1056A0000646009820BB44B9B54206D801F0C2FABC
:1056B00031462846FFF716FF1CE03CB10E48006853
:1056C000006808B9012000E000200446A91B22461A
:1056D0000A48006800F0FAFA01F0ACFA50B94FF04D
:1056E000805007490860BFF34F8FBFF36F8F01E011
:1056F00001F0A0FAF8BD000058F000205CF0002096
:1057000004ED00E00A490968096809B9012100E0CF
:10571000002121B14FF0FF31064A116006E0044933
:105720000968C968C868034A416811607047000089
:105730001CF0002048F0002070B5044601F020F96C
:10574000054607480068854204D200F00BF80120A6
:10575000206001E00020206001480560284670BDFF
:1057600064F000202DE9F84334E025480068C06863
:10577000056823480068C068C468201D00F064F90B
:105780002046216A884794F8280000F0040008B3F6
:10579000A0694619AE4207D966602461211D1848E8
:1057A000006800F075F915E0002003462A4601461E
:1057B0000090204601F0EAFA074657B900BF502092
:1057C00080F31188BFF34F8FBFF36F8F00BF00BF0F
:1057D000FEE700BF0A480068006808B9012000E041
:1057E00000200028C1D00648D0F800800548006895
:1057F000034908600348C0F80080BDE8F883000052
:1058000054F0002058F000200E480068401C08B9F1
:10581000012000E0002050B900BF502080F3118823
:10582000BFF34F8FBFF36F8F00BF00BFFEE700BF16
:10583000502080F31188BFF34F8FBFF36F8F00BFED
:1058400000BFFEE768F0002008B500BF6846FFF71C
:10585000BBFC044620460099FFF71AFFFFF77CFEC9
:10586000F4E770B5044600F039F994F9455010E0BA
:10587000606A08B9012000E0002038B904F1240072
:1058800001F08CF918B100F081FA00E003E0681E25
:1058900045B2002DECDC00BFFF2084F8450000F08D
:1058A00047F900F01BF994F9445010E0206908B959
:1058B000012000E0002048B904F1100001F06EF969
:1058C00008B100F063FA681E45B200E001E0002D67
:1058D000ECDC00BFFF2084F8440000F029F970BD23
:1058E0002DE9F04104464FF0000800F0DBFA46488D
:1058F000006808B9FFF77CFC444800682040002895
:105900006BD1D4B1083404F00700B0B104F0070043
:10591000C0F10800044404F0070008B9012000E0C9
:10592000002050B900BF502080F31188BFF34F8F83
:10593000BFF36F8F00BF00BFFEE7002C4DD034488F
:105940000068844249D8334E3046056801E02E464F
:105950002D686868A04202D228680028F7D12A483A
:105960000068854239D0306800F108082868306046
:105970006868001B102819D92F1907F0070008B90B
:10598000012000E0002050B900BF502080F31188B2
:10599000BFF34F8FBFF36F8F00BF00BFFEE7686894
:1059A000001B78606C603846FFF720FD1849686876
:1059B0000968081A16490860084600681649096807
:1059C000884203D212480068134908600F4968688A
:1059D0000968084368600020286001F02BF908F08E
:1059E000070008B9012000E0002050B900BF502096
:1059F00080F31188BFF34F8FBFF36F8F00BF00BFDD
:105A0000FEE74046BDE8F0817CF0002088F00020F1
:105A100080F0002074F0002084F00020001F4FF080
:105A200080730360001F21F001030360001F054B1A
:105A3000036014380260001F6FF002030360203817
:105A4000704700000958000801460A69D1E9013091
:105A50009860D1E9010358605068884201D1886894
:105A60005060002008611068401E10601068704788
:105A700000F1080141604FF0FF31816000F1080141
:105A8000C160016100210160704700210161704720
:105A900010B502460B685C1C0CB9106907E002F1F6
:105AA000080000E04068446824689C42FAD94468D1
:105AB0004C604C68A160886041600A611468641C95
:105AC000146010BD42684A6093688B6093685960A7
:105AD0009160086103685B1C0360704700BF502041
